:100000000C942A000C9434000C9434000C943400AA
:100010000C9434000C9434000C9434000C94340090
:100020000C9434000C9434000C9434000C94340080
:100030000C9434000C9434000C9434000C94340070
:100040000C9434000C9434000C9434000C94340060
:100050000C94340011241FBECFE5D8E0DEBFCDBF25
:100060000E94C1000C94C8000C940000813009F07B
:100070007CC0683689F58BB383608BBB8FE19EE4CF
:100080000197F1F700C000008BB381608BBB8FEC50
:1000900097E00197F1F700C000008BB385608BBB40
:1000A00087EC90E00197F1F700C000008BB3887FE8
:1000B00084608BBB9AE19A95F1F700C08BB3887F7F
:1000C00086608BBB22E02A95F1F700C08BB38C7F52
:1000D00082608BBB000008956C3609F051C08BB371
:1000E00083608BBB8FEC97E00197F1F700C00000B5
:1000F0008BB381608BBB8FE19EE40197F1F700C069
:1001000000008BB385608BBB9FEF20E732E09150FE
:1001100020403040E1F700C000008BB3887F84604E
:100120008BBB8FEF99E628E1815090402040E1F7AA
:1001300000C000008BB3887F86608BBB3FEF83E2FB
:1001400094EF315080409040E1F700C000008BB345
:100150008C7F82608BBB2AEA3AEA8AEA9AE22150D3
:10016000304080409040D9F70895811109C08BB389
:100170008E7F8BBB8BB38D7F8BBB8BB38B7F8BBB0E
:10018000089587E08ABB6CE681E00E943600FBCFD1
:04019000F894FFCF11
:00000001FF
