S0130000536572766F5F6D6F746F722E7372656372
S11300000C942A000C9434000C9434000C943400A6
S11300100C9434000C9434000C9434000C9434008C
S11300200C9434000C9434000C9434000C9434007C
S11300300C9434000C9434000C9434000C9434006C
S11300400C9434000C9434000C9434000C9434005C
S11300500C94340011241FBECFE5D8E0DEBFCDBF21
S11300600E946B000C946F000C94000091B3906894
S113007091BB1DBC1CBC23EC39E037BD26BD92E806
S113008095BD9BE195BD813059F491E493BD2FEF6B
S11300903EE994E2215030409040E1F700C0000076
S11300A0823059F49FEA93BD2FEF3EE994E2215048
S11300B030409040E1F700C00000833059F48CE2F6
S11300C083BD2FEF3EE984E2215030408040E1F7C8
S11300D000C00000089581E00E943600FCCFF8942F
S10500E0FFCF4C
S9030000FC
